:020000040800F2
:1000000000C00020F9020008FF02000803030008F6
:100010007503000879030008C10300080000000010
:1000200000000000000000000000000009040008BB
:100030000D04000800000000110400081504000869
:1000400025040008250400082504000825040008EC
:1000500025040008250400082504000825040008DC
:1000600025040008250400082504000825040008CC
:1000700025040008250400082504000825040008BC
:1000800025040008250400082504000825040008AC
:10009000250400082504000825040008250400089C
:1000A000250400082504000825040008250400088C
:1000B000815E0008250400082504000825040008C6
:1000C000250400082504000825040008250400086C
:1000D00025040008616100089561000825040008F6
:1000E000250400082504000825040008250400084C
:1000F000250400082504000825040008250400083C
:1001000025040008096400082504000825040008E7
:10011000250400082504000825040008250400081B
:10012000250400082504000825040008250400080B
:1001300000000000000000000000000000000000BF
:1001400000000000000000000000000000000000AF
:10015000000000000000000000000000000000009F
:10016000000000000000000000000000000000008F
:10017000000000000000000000000000000000007F
:10018000000000000000000000000000000000006F
:10019000000000000000000000000000000000005F
:1001A000000000000000000000000000000000004F
:1001B000000000000000000000000000000000003F
:1001C000000000000000000000000000000000002F
:1001D000000000000000000000000000000000001F
:1001E0005FF8E0F100B583B001F0ACFF304B314A6D
:1001F0001360314A1360314B314A03E011681960D2
:10020000043304322F498B42F8D32A4B1A682E4B01
:100210009A4200D0FEE7284B1A682C4B9A42F9D13B
:10022000234B2B4A13602B4A13602B4B02E0002216
:100230001A600433294A9342F9D3254B1B6813B93A
:10024000244B1B6803B1FEE701F088FF694601A853
:1002500001F00AFF224B234CE41AA4100025AC4203
:1002600014DC214B214CE41AA4100025AC4213DC11
:100270000099019806F072F805461D4B1D4CE41AD2
:10028000A410002C0EDC284601F0C0FE144B53F8DD
:10029000253098470135E2E7134B53F8253098474E
:1002A0000135E3E7013C124B53F824309847E8E767
:1002B000BABADECA00000020C041002000000020C1
:1002C00018200308C441002078563412325476981E
:1002D000C4410020C0830020C4410020C48300200A
:1002E000500400085004000850040008500400089E
:1002F000500400085004000808B5FFF773FF00BE63
:10030000FEE71EF0040F0CBFEFF30880EFF3098047
:100310007146414A10472DE9F04182B004468846B3
:10032000124B5E6B9F6B9D6A1B6B13F0020F03D029
:100330000E4BDB6A002B0CDB0D4801F0A7FECDF85D
:1003400000803B4632462946204601F00BFF00BEA6
:10035000FEE74BF6AB6101F07FFF0028ECD04FF0D9
:100360000042024BDA6202B0BDE8F08100ED00E02D
:10037000A46F000800BEFEE71EF0040F0CBFEFF3F1
:100380000880EFF309807146244A10472DE9F041B7
:1003900082B004468846084B5E6B9F6B9D6A074897
:1003A00001F074FECDF800803B46324629462046D7
:1003B00001F0D8FE00BEFEE700ED00E0B46F0008DB
:1003C0001EF0040F0CBFEFF30880EFF309807146B5
:1003D000134A10472DE9F04182B004468846084B85
:1003E0005E6B9F6B9D6A074801F050FECDF8008060
:1003F0003B4632462946204601F0B4FE00BEFEE7E9
:1004000000ED00E0C06F000800BEFEE700BEFEE7A2
:1004100000BEFEE770470000170300088D030008C8
:08042000D503000800BEFEE751
:100428001820030800000020C441002018200308F9
:100438000000000000000000C4410020C483002028
:080448000000000000000000AC
:1004500010B50446B0F5E06F0FD0B0F5C06F0CD00A
:10046000B0F5A06F09D0B0F5806F06D0B0F5407F31
:1004700003D06321044801F0FFFD44F0BF6444F45D
:100480000034024BDC6010BDC06C000800ED00E0E1
:1004900010B50446C378012B03D97521204801F01B
:1004A000EBFD63780F2B10D8A3780F2B12D8E378CD
:1004B000ABB923785A0903F01F03012101FA03F3B2
:1004C0002032184941F8223010BD7621144801F03D
:1004D000D3FDE9E77721124801F0CEFDE7E7124BA3
:1004E000DA68D243C2F30222C2F104000F2121FADA
:1004F00002F263788340A1780A4013431B012278FB
:10050000DBB208490A4482F800332378580903F023
:100510001F03012202FA03F341F8203010BD00BF8F
:10052000C06C000800E100E000ED00E038B50546D1
:100530000C46564B984225D01433984222D014339F
:1005400098421FD0143398421CD01433984219D0CB
:100550001433984216D01433984213D003F56273C3
:1005600098420FD0143398420CD01433984209D0DB
:100570001433984206D01433984203D0CF21444814
:1005800001F07AFDA368102B01D0002B5BD1E3684A
:10059000013B4FF6FE7293425AD82369402B01D09B
:1005A000002B5AD16369802B01D0002B5AD1A3694B
:1005B0004BB1B3F5807F06D0B3F5007F03D0D421D3
:1005C000334801F059FDE3694BB1B3F5806F06D0B4
:1005D000B3F5006F03D0D5212D4801F04DFD236AFE
:1005E000202B01D0002B42D1636AB3F5405F07D0C6
:1005F000B3F5005F04D0B3F5805F01D0002B3BD191
:10060000A36AB3F5804F01D0002B3AD12A6822F4B7
:10061000FF4222F07002A368216A0B4321690B4359
:1006200061690B43A1690B43E1690B43616A0B43A9
:10063000A16A0B4313432B60E3686B602368AB60D4
:100640006368EB6038BDD021114801F015FD9EE7CD
:10065000D1210F4801F010FD9FE7D2210C4801F095
:100660000BFD9FE7D3210A4801F006FD9FE7D62145
:10067000074801F001FDB7E7D721054801F0FCFC70
:10068000BEE7D821024801F0F7FCBFE708000240AE
:10069000E86C000838B504460D461F4B984226D03A
:1006A0001433984223D01433984220D01433984204
:1006B0001DD0143398421AD01433984217D01433F3
:1006C000984214D003F56273984210D014339842C4
:1006D0000DD0143398420AD01433984207D0143303
:1006E000984204D040F229110C4801F0C5FC012DBC
:1006F00004D94FF49571094801F0BEFC35B923685F
:1007000023F001031B041B0C236038BD236843F056
:100710000103236038BD00BF08000240E86C0008F8
:1007200010B50446431E012B40F29B80042800F0C4
:100730009880082800F09580102800F092802028EA
:1007400000F08F80402800F08C80802800F08980A5
:10075000B0F5807F00F08580B0F5007F00F08180EB
:10076000B0F5806F7DD0B0F5006F7AD0B0F5805FC6
:1007700077D0B0F5005F74D0B0F5804F71D0B0F590
:10078000004F6ED0B0F5803F6BD0B0F5003F68D021
:10079000B0F5802F65D0B0F5002F62D0B0F5801F86
:1007A0005FD0B0F5001F5CD0B0F5800F59D0B0F528
:1007B000000F56D0B0F1807F53D0B0F1007F50D001
:1007C000B0F1806F4DD0B0F1006F4AD02C4B984201
:1007D00047D00133984244D00233984241D0043389
:1007E00098423ED0083398423BD01033984238D0DC
:1007F0002033984235D04033984232D080339842EB
:100800002FD003F5807398422BD003F500739842E4
:1008100027D003F58063984223D0B0F1102F20D069
:1008200003F5C05398421CD003F50053984218D0EA
:1008300003F58043984214D003F50043984210D04A
:1008400003F5803398420CD003F50033984208D06A
:1008500003F58023984204D040F2B711094801F013
:100860000BFC14F0805F05D0074B1B68234204D1BA
:10087000002010BD054B1B68F8E7012010BD00BF2C
:1008800001000010E86C0008000402400000024073
:1008900010B5044610F0704F02D0094B034003B965
:1008A00024B940F20E21074801F0E6FB14F0805F06
:1008B00002D1054B5C6010BD044B5C6010BD00BFF5
:1008C0000000F0EFE86C0008000002400004024065
:1008D000F8B505460C46484B98421BD003F580639B
:1008E000984217D003F58063984213D003F58063D4
:1008F00098420FD003F5806398420BD003F58063D4
:10090000984207D003F58063984203D0B2213B4858
:1009100001F0B2FBE3788BB1042B0FD0282B0DD064
:10092000482B0BD0142B09D0102B07D01C2B05D033
:10093000182B03D0B321314801F09EFB238893B1DB
:10094000E37803F00F06304613F0100F06D0A378BB
:10095000013BDBB2022B0BD8A0783043237833B3B2
:100960002E6800230BE0B421244801F085FBE7E763
:10097000BB21224801F080FBEEE76A610133072BBF
:1009800014D801229A40218832EA0101F6D1990057
:100990000F278F4026EA070600FA01F10E43E1789F
:1009A0002829EAD04829E9D12A61E7E72E6023887F
:1009B000FF2B20D96E68002302E06A6115E0013345
:1009C000072B17D803F1080101228A40218832EA57
:1009D0000101F4D199000F278F4026EA070600FA9B
:1009E00001F10E43E1782829E7D0E1784829E6D1E2
:1009F0002A61E4E76E60F8BD00080140186D000848
:100A000038B504460D462A4B98421CD003F5806346
:100A1000984218D003F58063984214D003F58063A0
:100A2000984210D003F5806398420CD003F58063A0
:100A3000984208D003F58063984204D04FF48F7138
:100A40001C4801F019FB6B1E9BB2012B28D9042D09
:100A500026D0082D24D0102D22D0202D20D0402D9E
:100A60001ED0802D1CD0B5F5807F19D0B5F5007F44
:100A700016D0B5F5806F13D0B5F5006F10D0B5F571
:100A8000805F0DD0B5F5005F0AD0B5F5804F07D077
:100A9000B5F5004F04D040F21F11064801F0ECFA02
:100AA000A3681D4201D1002038BD012038BD00BF20
:100AB00000080140186D000838B504460D46144B77
:100AC00098421CD003F58063984218D003F58063E8
:100AD000984214D003F58063984210D003F58063E8
:100AE00098420CD003F58063984208D003F58063E8
:100AF000984204D040F26911064801F0BDFA0DB1E8
:100B0000256138BD4FF4B571024801F0B5FAF7E739
:100B100000080140186D000838B504460D46144B16
:100B200098421CD003F58063984218D003F5806387
:100B3000984214D003F58063984210D003F5806387
:100B400098420CD003F58063984208D003F5806387
:100B5000984204D040F27911064801F08DFA0DB1A7
:100B6000656138BD4FF4BD71024801F085FAF7E7C1
:100B700000080140186D000810B5044645F25553B1
:100B8000984200D010B9044B1C6010BD5F2103488F
:100B900001F072FAF7E700BF003000404C6D00082A
:100BA00010B50446062802D8034B5C6010BD7321C3
:100BB000024801F061FAF7E7003000404C6D000890
:100BC00010B50446B0F5805F02D2044B9C6010BDA6
:100BD0008021034801F050FAF7E700BF00300040E1
:100BE0004C6D00084AF6AA22014B1A60704700BFFC
:100BF000003000404CF6CC42014B1A60704700BFF9
:100C0000003000400D4B1A6842F001021A6059682A
:100C10000B4A0A405A601A6822F0847222F4803229
:100C20001A601A6822F480221A605A6822F4FE02BE
:100C30005A604FF41F029A60704700BF00100240D4
:100C40000000FFF810B5044650B1B0F5803F07D062
:100C5000B0F5802F04D040F211110F4801F00CFACA
:100C60000E4B1A6822F480321A601A6822F480222D
:100C70001A60B4F5803F03D0B4F5802F06D010BDC4
:100C8000064A136843F48033136010BD034A1368A7
:100C900043F4A023136010BD806D000800100240D3
:100CA00038B50C46054650B1B0F5803F07D0B0F5D9
:100CB000403F04D040F27F111D4801F0DDF974B3CC
:100CC000B4F5802F2BD0B4F5002F28D0B4F5402FE9
:100CD00025D0B4F5801F22D0B4F5A01F1FD0B4F5E5
:100CE000C01F1CD0B4F5E01F19D0B4F5001F16D0FA
:100CF000B4F5101F13D0B4F5201F10D0B4F5301F79
:100D00000DD0B4F5401F0AD0B4F5501F07D0B4F58C
:100D1000601F04D04FF4C071054801F0ADF9054BD8
:100D2000596821F47C112C432143596038BD00BF20
:100D3000806D00080010024010B50446012804D957
:100D40004FF4CA71024801F097F9024B1C6010BDC4
:100D5000806D00086000424210B50446022806D8A3
:100D6000064A536823F003031C43546010BD4FF43C
:100D70000E71034801F080F9F2E700BF0010024055
:100D8000806D0008024B586800F00C00704700BFEF
:100D90000010024010B50446A0B1802812D090285F
:100DA00010D0A0280ED0B0280CD0C0280AD0D0284F
:100DB00008D0E02806D0F02804D04FF41971054877
:100DC00001F05AF9044A536823F0F0031C435460BD
:100DD00010BD00BF806D00080010024010B5044631
:100DE00080B1B0F5806F0DD0B0F5A06F0AD0B0F52E
:100DF000C06F07D0B0F5E06F04D040F27E21054807
:100E000001F03AF9044A536823F4E0631C43546048
:100E100010BD00BF806D00080010024010B50446F0
:100E200080B1B0F5806F0DD0B0F5A06F0AD0B0F5ED
:100E3000C06F07D0B0F5E06F04D04FF426710548BD
:100E400001F01AF9044B586820F4605040EAC400DD
:100E5000586010BD806D00080010024010B50446B7
:100E6000012804D940F26131024801F005F9024B32
:100E70001C6010BD806D00088004424210B4294BF4
:100E80005B6803F00C03042B2BD0082B2CD013B180
:100E9000254B036001E0244B036022494B68C3F3F8
:100EA0000313224CE35CDAB20368D34043604A6820
:100EB000C2F30222A25CD2B223FA02F282604A6832
:100EC000C2F3C222A25CD2B2D340C3604A68C2F36A
:100ED000813217498A5CD2B2B3FBF2F3036110BCD2
:100EE0007047114B0360D8E70E4A53685268C3F34A
:100EF0008343023312F4803F09D00A4A526812F445
:100F0000003F09D00B4A02FB03F30360C5E7094A1F
:100F100002FB03F30360C0E7034A02FB03F3036031
:100F2000BBE700BF0010024000127A00080000205A
:100F30000400002000093D0038B504460D4620F4A9
:100F4000AA6323F0070303B920B940F22B410B48F1
:100F500001F092F8012D04D940F22C41074801F02C
:100F60008BF82DB9064A536923EA0404546138BD4D
:100F7000034B5A6914435C6138BD00BF806D0008A3
:100F80000010024038B504460D460E4B034003B92D
:100F900020B940F24A410C4801F06EF8012D04D905
:100FA00040F24B41084801F067F82DB9074A9369B0
:100FB00023EA0404946138BD044B9A6914439C618C
:100FC00038BD00BF0200C0FF806D00080010024065
:100FD00038B504460D460E4B184200D120B940F2F8
:100FE00069410C4801F048F8012D04D940F26A41EA
:100FF000084801F041F82DB9074AD36923EA0404EF
:10100000D46138BD044BDA691443DC6138BD00BFDC
:1010100000360181806D00080010024010B50446C2
:10102000212818D0312816D0392814D0412812D0C0
:10103000612810D07A280ED07B280CD07C280AD0CA
:101040007D2808D07E2806D07F2804D040F2345175
:101050000D4801F011F86309012B0CD0022B0DD0C3
:101060000A4B5B6A04F01F0423FA04F414F0010F26
:1010700007D1002010BD054B1B68F3E7034B1B6A2B
:10108000F0E7012010BD00BF806D00080010024095
:1010900000B583B0002301933120FFF7BFFF019B10
:1010A00001330193019BB3F5A06F01D00028F3D069
:1010B0003120FFF7B3FF18B9002003B05DF804FB3F
:1010C0000120FAE7064B00221A605A609A60DA6043
:1010D0005A629A62DA6203499963DA63704700BF21
:1010E00000800140FF07C00010B50446036833B11B
:1010F000B3F5005F03D0BA211E4800F0BDFF63685E
:1011000033B1B3F5806F03D0BB211A4800F0B4FFB0
:10111000A36833B1B3F5007F03D0BC21154800F0BC
:10112000ABFFE3684BB1B3F5006F06D0B3F5805F5A
:1011300003D0BD210F4800F09FFF236933B1B3F501
:10114000804F03D0BE210B4800F096FF0A494A6841
:1011500022F4FD4222F07F02237DA06803436068F1
:101160000343E068034320680343206903431343B8
:101170004B6010BDB06D00080080014010B5044602
:10118000012803D9EE21034800F076FF024B1C60D2
:1011900010BD00BFB06D0008A000304210B504467D
:1011A00028B1032803D0FE21054800F065FF054B58
:1011B0001A6822F003021A601A6814431C6010BDFA
:1011C000B06D000800800140024B186800F0030079
:1011D000704700BF0080014038B504460D4610F04E
:1011E0007F4F00D120B94FF49B710B4800F044FFB2
:1011F000012D04D940F23711074800F03DFF2DB909
:10120000064AD36B23EA0404D46338BD034BDA6B7C
:101210001443DC6338BD00BFB06D0008008001409E
:1012200010B50446012804D94FF4A771024800F014
:1012300023FF024B1C6010BDB06D00088C053042CE
:1012400010B5044643683F2B2ED8A36843B1402B0A
:1012500006D0C02B04D04FF4B071194800F00CFF39
:10126000E36853B1B3F5807F07D0B3F5007F04D0B6
:1012700040F26111124800F0FFFE2369B3F5806F60
:1012800000D0BBB923680F498B60CB6823F4FF63A0
:1012900023F007036268A0680243E0680243206904
:1012A00002431343CB6010BD40F25F11044800F0CD
:1012B000E3FECAE74FF4B171014800F0DDFEE1E75B
:1012C000B06D000800800140014B1869C0B2704742
:1012D0000080014010B582B000230193044650B154
:1012E000042808D0082806D00C2804D040F2A11108
:1012F000044800F0C1FE044B23440193019B18688D
:1013000002B010BDB06D00081480014010B5044655
:101310004368B3F1007F49D2A36803B3102B1ED0FA
:10132000202B1CD0302B1AD0402B18D0502B16D08D
:10133000602B14D0702B12D0802B10D0902B0ED09D
:10134000A02B0CD0B02B0AD0C02B08D0D02B06D0AD
:10135000E02B04D040F2B5111A4800F08DFEE3688E
:1013600033B1022B04D04FF4DB71164800F084FE39
:101370002369042B00D0FBB96369012B04D94FF416
:10138000DC71104800F078FE23680F494B626368F7
:101390008B62CA6A22F0F702A368E06803432069FF
:1013A0000343606903431343CB6210BD4FF4DA710A
:1013B000044800F061FEAFE740F2B711014800F0C9
:1013C0005BFED9E7B06D000800800140014BD3F807
:1013D000800070470080014010B50446431E012B79
:1013E00040D904283ED008283CD010283AD02028E4
:1013F00038D0402836D0802834D0B0F5807F31D026
:10140000B0F5007F2ED0B0F5806F2BD0B0F5006F17
:1014100028D0B0F5805F25D0B0F5005F22D0B0F5C0
:10142000804F1FD0B0F5004F1CD0B0F5803F19D0D1
:10143000B0F5003F16D0B0F5802F13D0B0F5002FD7
:1014400010D0B0F5801F0DD0B0F5001F0AD0B0F558
:10145000800F07D0B0F5000F04D040F29F2105485F
:1014600000F00AFE044B5B6B1C4201D1002010BD52
:10147000012010BDB06D00080080014010B5044689
:10148000054B034003B920B940F2C321034800F0E3
:10149000F3FD034B9C6310BD00F83FFFB06D0008E7
:1014A0000080014010B50446054B034003B920B944
:1014B00040F20E31034800F0DFFD034B9C6310BD8A
:1014C00000F83FFFB06D00080080014038B50446C9
:1014D0000D46524B984242D0B0F1804F3FD0A3F519
:1014E000943398423BD003F58063984237D003F59C
:1014F0008063984233D003F5806398422FD003F580
:10150000806398422BD003F59033984227D003F59F
:10151000C053984223D003F5806398421FD003F54F
:10152000806398421BD0A3F59E33984217D003F5F1
:101530008063984213D003F5806398420FD003F57F
:10154000903398420BD003F58063984207D003F59F
:101550008063984203D0E721314800F08DFD6B880D
:101560005BB1102B09D0202B07D0402B05D0602B6E
:1015700003D0E8212A4800F07FFDEB884BB1B3F59A
:10158000807F06D0B3F5007F03D0E921244800F026
:1015900073FD23889BB2214A944212D002F5006267
:1015A00094420ED0B4F1804F0BD0A2F59832944201
:1015B00007D002F58062944203D002F58062944223
:1015C00003D123F070036A881343164A944208D06B
:1015D00002F58062944204D023F440739BB2EA88FF
:1015E00013432380AB88A3852B8823850B4B9C4218
:1015F0000FD003F500639C420BD003F540639C427F
:1016000007D003F580639C4203D003F580639C42BE
:1016100001D12B7A23860123A38238BD002C0140FF
:10162000E46D00080010004038B504460D462E4B0E
:10163000984243D0B0F1804F40D0A3F59433984204
:101640003CD003F58063984238D003F5806398421C
:1016500034D003F58063984230D003F5806398421C
:101660002CD003F59033984228D003F5C05398420C
:1016700024D003F58063984220D003F5806398421C
:101680001CD0A3F59E33984218D003F5806398428E
:1016900014D003F58063984210D003F5903398423C
:1016A0000CD003F58063984208D003F5806398421C
:1016B00004D040F229310D4800F0DEFC012D04D9A0
:1016C00040F22A31094800F0D7FC35B923889BB293
:1016D00023F001039BB2238038BD23889BB243F0E3
:1016E0000103238038BD00BF002C0140E46D0008D9
:1016F00070B504460D461646314B984243D0B0F1C2
:10170000804F40D0A3F5943398423CD003F58063DA
:10171000984238D003F58063984234D003F5806353
:10172000984230D003F5806398422CD003F5903373
:10173000984228D003F5C053984224D003F5806323
:10174000984220D003F5806398421CD0A3F59E33C5
:10175000984218D003F58063984214D003F5806353
:10176000984210D003F5903398420CD003F5806373
:10177000984208D003F58063984204D040F26B3160
:10178000104800F079FC15F47F4F00D125B94FF4D3
:101790005B710C4800F070FC012E04D940F26D31F1
:1017A000084800F069FC2EB9A389ED43ADB21D4095
:1017B000A58170BDA3899BB21D43A58170BD00BFEB
:1017C000002C0140E46D000838B504460D462A4B54
:1017D000984243D0B0F1804F40D0A3F59433984263
:1017E0003CD003F58063984238D003F5806398427B
:1017F00034D003F58063984230D003F5806398427B
:101800002CD003F59033984228D003F5C05398426A
:1018100024D003F58063984220D003F5806398427A
:101820001CD0A3F59E33984218D003F580639842EC
:1018300014D003F58063984210D003F5903398429A
:101840000CD003F58063984208D003F5806398427A
:1018500004D040F63621094800F00EFC15F4614F23
:1018600000D125B940F63721044800F005FCED43CE
:10187000ADB2258238BD00BF002C0140E46D0008E8
:1018800038B504460D46344B984243D0B0F1804FF2
:1018900040D0A3F5943398423CD003F5806398423E
:1018A00038D003F58063984234D003F580639842C2
:1018B00030D003F5806398422CD003F590339842E2
:1018C00028D003F5C053984224D003F58063984292
:1018D00020D003F5806398421CD0A3F59E33984234
:1018E00018D003F58063984214D003F580639842C2
:1018F00010D003F5903398420CD003F580639842E2
:1019000008D003F58063984204D040F6582113486C
:1019100000F0B2FB6B1E9BB2012B10D9042D0ED030
:10192000082D0CD0102D0AD0202D08D0402D06D027
:10193000802D04D040F65921084800F09DFB228AF2
:10194000A3892B40154202D01BB9002038BD0020CE
:1019500038BD012038BD00BF002C0140E46D0008F7
:1019600038B504460D462A4B984243D0B0F1804F1B
:1019700040D0A3F5943398423CD003F5806398425D
:1019800038D003F58063984234D003F580639842E1
:1019900030D003F5806398422CD003F59033984201
:1019A00028D003F5C053984224D003F580639842B1
:1019B00020D003F5806398421CD0A3F59E33984253
:1019C00018D003F58063984214D003F580639842E1
:1019D00010D003F5903398420CD003F58063984201
:1019E00008D003F58063984204D040F6822109486C
:1019F00000F042FB15F47F4F00D125B940F683215A
:101A0000044800F039FBED43ADB2258238BD00BF7C
:101A1000002C0140E46D000830B587B004460D4647
:101A2000654B984213D0A3F5744398420FD003F549
:101A3000806398420BD003F58063984207D003F58A
:101A40008063984203D0B8215C4800F015FB2B68F6
:101A5000013B5B4A934200F29480AB8833B1B3F50B
:101A6000805F03D0BA21554800F006FBEB8863B1D4
:101A7000B3F5805F09D0B3F5005F06D0B3F5405FE2
:101A800003D0BB214D4800F0F7FA2B894BB1B3F5D9
:101A9000806F06D0B3F5C06F03D0BC21474800F07B
:101AA000EBFA6A8922F00C039BB203B91AB9BD2183
:101AB000424800F0E1FAAB8963B1B3F5807F09D009
:101AC000B3F5007F06D0B3F5407F03D0BE213B487D
:101AD00000F0D2FAAB8973B1374B9C420BD0A3F51F
:101AE00074439C4207D003F580639C4203D0C2211B
:101AF000324800F0C1FA238A9BB2EA8823F44053AB
:101B000013432382A3899BB2A98828896A89014348
:101B10000A4323F4B05323F00C031343A381A38A95
:101B20009BB2AA8923F440731343A38201A8FFF751
:101B3000A5F9214B9C4229D0039BA28912F4004FA6
:101B400026D103EB830303EB830329688900B3FBEE
:101B5000F1F11C4BA3FB012358090501642300FB91
:101B60001313A28912F4004F1BD11B013233154A03
:101B7000A2FB0323C3F343132B439BB2238107B080
:101B800030BDB9210D4800F077FA66E7049BD4E731
:101B900003EB830303EB830329684900B3FBF1F1F3
:101BA000D7E7D9003231074AA2FB0131C1F3421213
:101BB00045EA0203E1E700BF00380140146E000867
:101BC0001FAA44001F85EB5138B504460D46164B3D
:101BD000984214D0A3F57443984210D003F5806363
:101BE00098420CD003F58063984208D003F58063D7
:101BF000984204D04FF4B1710C4800F03DFA012D29
:101C000004D940F26311094800F036FA35B9A389C6
:101C10009BB223F400539BB2A38138BDA3899BB22E
:101C200043F40053A38138BD00380140146E00080E
:101C300070B504460D461646374B984214D0A3F5AE
:101C40007443984210D003F5806398420CD003F59A
:101C50008063984208D003F58063984204D040F234
:101C600089112E4800F008FA282D1ED040F2277363
:101C70009D421AD040F226639D4216D040F2255371
:101C80009D4212D040F224439D420ED040F64603BE
:101C90009D420AD040F66A139D4206D0602D04D0C2
:101CA0004FF4C5711D4800F0E7F9012E04D940F248
:101CB0008B111A4800F0E0F940F66A139D4211D0EA
:101CC000C5F3421205F01F05012303FA05F59A42F8
:101CD00019D0022A19D01434CEB9236823EA050595
:101CE000256070BD0C4B9C42EAD0A3F574439C4226
:101CF000E6D003F580639C42E2D040F28F110748A2
:101D000000F0BAF9DCE70C34E6E71034E4E72368C6
:101D10001D43256070BD00BF00380140146E0008EF
:101D200038B504460D46124B984214D0A3F57443BF
:101D3000984210D003F5806398420CD003F580637D
:101D4000984208D003F58063984204D040F25F21A6
:101D5000084800F091F9B5F5007F03D2C5F30805F6
:101D6000A58038BD4FF41871024800F085F9F5E7F9
:101D700000380140146E000810B504460D4B98421F
:101D800014D0A3F57443984210D003F580639842B1
:101D90000CD003F58063984208D003F58063984225
:101DA00004D04FF41C71044800F066F9A088C0F319
:101DB000080010BD00380140146E000838B5054613
:101DC0000C46274B984214D0A3F57443984210D088
:101DD00003F5806398420CD003F58063984208D0E5
:101DE00003F58063984204D040F286311D4800F02C
:101DF00043F9012C18D0802C16D0402C14D0202C64
:101E000012D0102C10D0B4F5807F0DD0B4F5007F27
:101E10000AD0082C08D0042C06D0022C04D040F2A2
:101E20008731104800F028F9B4F5007F04D02B88E2
:101E30001C4212D1002038BD094B9D42F7D0A3F5BA
:101E400074439D42F3D003F580639D42EFD040F28E
:101E50008B31044800F010F9E9E7012038BD00BFDC
:101E600000380140146E000838B505460C463C4B5E
:101E7000984214D0A3F57443984210D003F58063C0
:101E800098420CD003F58063984208D003F5806334
:101E9000984204D040F2D931324800F0EDF8282CB5
:101EA00025D040F227739C4221D040F226639C4209
:101EB0001DD040F225539C4219D040F224439C424D
:101EC00015D040F646039C4211D040F66A139C425E
:101ED0000DD0B4F5587F0AD0B4F5187F07D0B4F50B
:101EE000B07F04D040F2DA311E4800F0C5F840F669
:101EF0006A139C4217D0C4F3421204F01F0101235D
:101F00008B40012A20D0022A22D0AA8A92B2134002
:101F1000240A012202FA04F42A8892B21440DBB1A6
:101F2000E4B9002038BD0E4B9D42E4D0A3F57443C4
:101F30009D42E0D003F580639D42DCD040F2DE316B
:101F4000084800F099F8D6E7AA8992B21340DFE773
:101F50002A8A92B21340DBE7002038BD012038BD49
:101F600000380140146E000838B505460C46254B74
:101F7000984214D0A3F57443984210D003F58063BF
:101F800098420CD003F58063984208D003F5806333
:101F9000984204D040F222411B4800F06DF840F214
:101FA00026639C4210D040F225539C420CD040F650
:101FB00046039C4208D040F66A139C4204D040F28B
:101FC0002341114800F058F840F66A139C4207D0AC
:101FD000240A0123A3409BB2DB439BB22B8038BD74
:101FE000084B9D42F4D0A3F574439D42F0D003F515
:101FF00080639D42ECD040F22741034800F03CF85A
:10200000E6E700BF00380140146E0008FEE700005C
:1020100008B5034800F052F80120FFF7F7FF00BFB2
:10202000486E000808B503460C4A12685AB10B4ABC
:102030001068033323F003030344094A934206D88C
:10204000064A136008BD0749044A1160EFE704F02F
:10205000DFF90C2303604FF0FF3008BDC8410020BA
:1020600000BC0020C483002001230360014B0B60EF
:10207000704700BF1800002008B50A460146024814
:1020800000F004F8FFF7C4FF5C6E00080FB400B561
:1020900083B004AB53F8042B01938021064804F06D
:1020A000F9F9002803DD0146034800F047F803B0C2
:1020B0005DF804EB04B07047D041002010B5044631
:1020C00004F0B4F90146204600F038F80121024836
:1020D00000F034F810BD00BF6C1E03082DE9F0437A
:1020E00085B004460F4643560BB10E461EE004254C
:1020F00028462146ABBE0446384605B0BDE8F0830D
:1021000014F9011B04AA1A4402F8101C0133AB4253
:10211000F6D304AA1344002203F8102CE9464FF02A
:10212000040840464946ABBE8046761B002EE3D0ED
:102130003546102E28BF10250023E8E708B5FFF725
:10214000CDFF08BD08B500F0FDF8024B024A9A60C9
:1021500008BD00BF00ED00E00000000808B500F079
:1021600019F908BDF8B504460D4617461E4627481E
:10217000FFF78CFF21682648FFF788FF6168254834
:10218000FFF784FFA1682448FFF780FFE168234838
:10219000FFF77CFF21692248FFF778FF616921483A
:1021A000FFF774FFA1692048FFF770FFE1691F483E
:1021B000FFF76CFF1E48FFF769FF29461D48FFF730
:1021C00065FF1D4CE16A1D48FFF760FF216B1C484D
:1021D000FFF75CFFE16B1B48FFF758FF15F0800F1E
:1021E0000AD115F4004F0CD11748FFF74FFF06999D
:1021F0001648FFF74BFFF8BD39461548FFF746FF75
:10220000EFE731461348FFF741FFEDE7886E00081E
:10221000986E0008A86E0008B86E0008C86E000826
:10222000D86E0008E86E0008F86E0008086F000815
:10223000186F0008246F000800ED00E0346F0008FC
:10224000446F0008546F0008846F00088C6F00080A
:10225000646F0008746F000883691A888A4201D08D
:10226000002070470268033A012A03D802338361D1
:10227000012070470020704782B000230193009333
:102280002C4A136843F4803313602A4B1B6803F411
:1022900000330093019B01330193009B1BB9019B09
:1022A000B3F5A06FF1D1234B1B6813F4003F06D0A8
:1022B00001230093009B012B04D002B07047002340
:1022C0000093F7E71C4B1A6842F010021A601A6874
:1022D00022F003021A601A6842F002021A60A3F5A3
:1022E00080535A685A605A685A605A6842F4806249
:1022F0005A605A6822F47C125A605A6842F4E81212
:102300005A601A6842F080721A600A4B1B6813F018
:10231000007FFAD0074B5A6822F003025A605A68CD
:1023200042F002025A60034B5B6803F00C03082B77
:10233000F9D1C2E7001002400020024008B5FFF7C3
:102340009BFF08BD08B5104B1A6842F001021A60E5
:1023500059680E4A0A405A601A6822F0847222F4C0
:1023600080321A601A6822F480221A605A6822F4B5
:10237000FE025A604FF41F029A60FFF7DFFF4FF032
:102380000062034B9A6008BD001002400000FFF895
:1023900000ED00E01F4B5B6803F00C03042B15D02D
:1023A000082B17D01BB11C4A1C4B1A6002E01A4ABA
:1023B0001A4B1A60174B5B68C3F30313184AD35CBC
:1023C000DAB216490B68D3400B607047124A134BC0
:1023D0001A60EFE70F4A53685268C3F3834302332E
:1023E00012F4803F0AD00B4A526812F4003F0BD01F
:1023F0000C4A02FB03F3094A1360DBE7094A02FBBC
:1024000003F3064A1360D5E7034A02FB03F3034ACA
:102410001360CFE70010024000127A003000002065
:102420002000002000093D00064B5B6B13F0450FB8
:10243000FAD0044B40F2FF529A63586900F008004A
:10244000704700BF0080014000B583B001213020FB
:10245000FEF798FD4FF4F853ADF8043003238DF8E0
:10246000063018238DF8073001A90B48FEF730FA23
:102470000423ADF804300DEB03010848FEF728FAF9
:1024800001214FF48060FEF757FD01210220FEF785
:1024900053FD03B05DF804FB00100140001401403F
:1024A00010B54FF4803400E0013C24B18020FEF7E9
:1024B00093FF0028F8D00CB9032010BD40F2FF5064
:1024C000FEF7DCFF002010BD08B5104B5A6B4FF42F
:1024D000803302E0013B0D4A526B12F0450F01D1EF
:1024E000002BF7D113B112F0040F04D00420FEF733
:1024F000C5FF032008BD12F0400F01D1002008BD28
:102500004020FEF7BBFF002008BD00BF0080014057
:1025100008B50B4B5B6B01E0094B5B6B13F0450F90
:10252000FAD013F0040F04D00420FEF7A7FF032015
:1025300008BD40F2FF50FEF7A1FF002008BD00BF1C
:102540000080014008B50F4B5B6B01E00D4B5B6BEE
:1025500013F0450FFAD013F0040F08D113F0010F58
:102560000AD140F2FF50FEF789FF002008BD042089
:10257000FEF784FF032008BD0120FEF77FFF012046
:1025800008BD00BF0080014038B504460D461E4B13
:102590005B6B01E01C4B5B6B13F0450FFAD013F043
:1025A000040F08D113F0010F0AD1FEF78DFEA042EF
:1025B0000BD0102038BD0420FEF760FF032038BD8B
:1025C0000120FEF75BFF012038BD40F2FF50FEF70F
:1025D00055FF0020FEF77EFE10F4604F04D010F48B
:1025E000005F05D0132038BD000C2880002038BDC6
:1025F00010F4804F01D0102038BD10F4004F01D0EE
:102600000F2038BD002038BD0080014070B582B079
:102610000D460023009301935248082202601024C3
:10262000446040228260C3604FF480630361FEF720
:1026300007FE2046FFF7F8FE044610B1204602B020
:1026400070BD494B1B681B04464803603724446037
:10265000402383600023C3604FF480630361FEF76F
:10266000EFFD2046FFF7E0FE04460028E6D13F4894
:102670004FF0FF330360082343603023836002235D
:10268000C3600024046101234361FEF73FFE354827
:1026900004603326466040238360C4604FF4806347
:1026A0000361FEF7CDFD3046FFF7BEFE044600286D
:1026B000C4D100262E4B5A6B40F22A631A420CD129
:1026C0004FF40010FEF788FE0028F3D0FEF77EFEE0
:1026D0004DF826000136012EECD90820FEF77CFECD
:1026E00020B10820FEF7CAFE0424A7E70220FEF767
:1026F00073FE20B10220FEF7C1FE02249EE72020D7
:10270000FEF76AFE20B12020FEF7B8FE062495E70A
:102710004FF40070FEF760FE28B14FF40070FEF732
:10272000ADFE07248AE740F2FF50FEF7A7FE009AAD
:10273000130203F47F0343EA0263110A01F47F41A9
:102740000B4343EA12636B60019A130203F47F03A5
:1027500043EA0263110A01F47F410B4343EA126327
:102760002B606BE7AC82002074420020288300209D
:102770000080014010B582B0044600200090019016
:10278000FEF7A8FD10F0007F03D00E23184602B01C
:1027900010BD6946324B1888FFF738FF0346002802
:1027A000F4D1012C05D0019B13F4803F30D12523B7
:1027B000ECE7019B13F4802F01D12523E6E7284B9A
:1027C0001B681B0427480360372444604023836050
:1027D0000023C3604FF480630361FEF731FD2046A0
:1027E000FFF722FE03460028D0D11E4802230360D3
:1027F00006244460402383600023C3604FF4806359
:102800000361FEF71DFD2046FFF70EFE0346BDE700
:10281000134B1B681B041348036037244460402398
:1028200083600023C3604FF480630361FEF708FDFB
:102830002046FFF7F9FD03460028A7D109480023E9
:1028400003600624446040228260C3604FF48063CA
:102850000361FEF7F5FC2046FFF7E6FD034695E72A
:1028600074420020AC82002070B58CB006460D4644
:102870001348FEF70DF8134C00212046FDF70AFF20
:10288000114B0193029600230393AD080495059321
:10289000802206924FF4007207924FF40062089271
:1028A00009934FF400520A920B9301A92046FDF7B9
:1028B0003DFE01212046FDF7EDFE0CB070BD00BFCE
:1028C00000F00010440402408080014070B58CB0DC
:1028D00006460D461348FDF7DBFF134C002120464A
:1028E000FDF7D8FE114B0193029610230393AD0818
:1028F000049500230593802206924FF400720792FC
:102900004FF40062089209934FF400520A920B931D
:1029100001A92046FDF70AFE01212046FDF7BAFE77
:102920000CB070BD00F000104404024080800140F3
:1029300008B50248FDF7F4FE08BD00BF00200010F6
:1029400000B583B04FF4C060FDF782FD31238DF8F0
:10295000043000238DF805308DF8063001238DF802
:10296000073001A8FDF794FD03B05DF804FB0000FB
:1029700070B55048B223037500240460446084603D
:10298000C4600461FEF7B0FB0320FEF707FC0120E2
:10299000FEF7F4FB4848046044608460C4604FF470
:1029A00080630361FEF74CFCFFF77AFD054608B132
:1029B000284670BD40484FF4D57303600823436038
:1029C00040238360C4604FF480630361FEF738FCEA
:1029D000FFF77AFD00284FD10122384B1A604FF0E3
:1029E00080463548002303603724446040228260DB
:1029F000C3604FF480630361FEF722FC2046FFF7BB
:102A000013FD05460028D3D10020044602460028C5
:102A100043D14FF6FE739C423FD827480023036002
:102A20003725456040228260C3604FF480630361B4
:102A3000FEF706FC2846FFF7F7FC05460028B7D14D
:102A400046F0004343F480131B480360292343608E
:102A5000402383600023C3604FF480630361FEF76B
:102A6000EFFBFFF755FD05460028A1D1FEF732FC2C
:102A70000246C00F0134CAE70F480026066037241B
:102A8000446040238360C6604FF480630361FEF7B7
:102A9000D7FB2046FFF7C8FCA3E74FF6FE739C4226
:102AA00001D91B2584E712F0804F81D00222034B0D
:102AB0001A607DE710830020AC8200207042002065
:102AC00030B583B00123ADF80630FEF77DFB18B9B1
:102AD0002524204603B030BD384B1B68042B21D081
:102AE00037480023036002224260C0228260C36034
:102AF0004FF480630361FEF7A3FBFFF723FD044659
:102B00000028E6D1FEF7E6FB2E4C20600420FEF7FD
:102B1000E1FB60600820FEF7DDFBA0600C20FEF703
:102B2000D9FBE060254B1B68012B2FD9062B2DD03C
:102B3000022B2BD0214B1B68042B3DD0BDF8063057
:102B4000214A13601B041E48036009234360C0230D
:102B500083600023C3604FF480630361FEF770FB62
:102B6000FFF7F0FC04460028B3D1FEF7B3FB174D86
:102B700028600420FEF7AEFB68600820FEF7AAFB81
:102B8000A8600C20FEF7A6FBE860A2E70C48002333
:102B900003600324446040228260C3604FF480637A
:102BA0000361FEF74DFB0DF106012046FFF7ECFC3B
:102BB00004460028BED08CE700248AE7704200203B
:102BC000AC8200205042002074420020604200206D
:102BD00070B403469B4A146880F84E409A4A1288A3
:102BE000A0F84C20994D2A68100EC1B28E091E70B3
:102BF000C0F38300587001F003019970C2F30741DC
:102C0000D970C2F307211971D2B25A7169680A0EDC
:102C10001201DA80C1F30740DA8892B242EA101258
:102C2000DA8000F00F001872080AC2B2D5095D728E
:102C3000C0F380159D72C0F34015DD72C0F300151E
:102C40001D7300255D73012C40F2A980022C00F059
:102C5000DE80C2F380115976520002F07E029A762D
:102C60007A48027A997E41EAD211997602F07F027F
:102C7000DA76C1680A0ED0091877C2F34110587786
:102C8000C2F382009877920002F00C02DA77080C07
:102C9000C2B2DC7F44EA9214DC77C0F3401083F8C0
:102CA0002000002083F8210002F0010283F8222096
:102CB0000A0AD4B2E50983F82350C2F3801583F8D9
:102CC0002450C2F3401583F82550C2F3001583F851
:102CD0002650C2F3810283F8272004F0030483F80E
:102CE0002840C1F3460183F82910012483F82A40C3
:102CF000574D2A68110E83F82C10C2F307410902C0
:102D0000D985C2F30726D98D89B23143D9851206F8
:102D10001A636A68160E196B41EA06411963110CB1
:102D20001E6B090289B2314319631E6BC2F307217E
:102D300031431963D2B283F83420AA68110E83F8A4
:102D40003510110C09069963110A9E6B090401F4F0
:102D50007F0131439963996B120292B20A439A63DD
:102D6000EA68996B41EA12619963110C93F83C503F
:102D7000C1F30316354383F83C50090201F4706136
:102D8000D987C2F30725D98F89B22943D987C2F3DE
:102D9000460283F8402083F8414070BC70478002AF
:102DA00000F4406018611A69890001F47F711143D1
:102DB0001961264A9268100EC1B21C6944EA911446
:102DC0001C61C0F3C200187501F007015975110CA0
:102DD000C1F342109875C1F38200D875490001F023
:102DE00006011976C2F30722197E41EAD21119763B
:102DF00019690131187E023001FA00F0197ACCB25B
:102E00000121A140996401FB00F1596421E7090403
:102E100001F47C1119610D4A9268100E196941EA9A
:102E2000002119611869C2F3074101431961C2F316
:102E3000072219690131C90459644FF4007199647A
:102E400007E700BF7042002074420020604200206B
:102E50005042002010B51B4B1B68032B2BD0022BBC
:102E60002CD8B0F5805F2BD0B0F5006F10D00020CB
:102E7000FFF780FC0446F8B91348012303750023CB
:102E8000036043608360C3600361FEF72DF913E0C4
:102E90000120FFF76FFC044670B90B48012303754E
:102EA00000230360436083604FF40062C2600361EB
:102EB000FEF71AF900E02724204610BD0024FBE7A6
:102EC0002724F9E7704200201083002010B5094B39
:102ED000186007245C6040229A600022DA604FF498
:102EE00080621A611846FEF7ABF92046FFF79CFA9C
:102EF00010BD00BFAC82002008B5FFF7A5FAFEF7B1
:102F0000E1F8FFF735FD034608B1184608BDFFF7A5
:102F1000D7FD03460028F8D10F480123037500238D
:102F2000036043608360C3600361FEF7DDF80B4814
:102F3000FFF74EFE034638B1002BE6D14FF4006098
:102F4000FFF788FF0346E0E7044BB3F84C000004AA
:102F5000FFF7BCFF0346EFE710830020C08200208C
:102F60002DE9F04107460E4614460023294A137006
:102F7000294A1360294A1360294AD362294B1B68E6
:102F8000022B15D0A0462848046010254560402338
:102F900083600023C3604FF480630361FEF750F940
:102FA0002846FFF741FA054630B12846BDE8F081D2
:102FB0004E0A4FF40074E5E71C484FF0FF330360FE
:102FC0004460902383600223C360002505610123D0
:102FD0004361FEF79BF914480660112444604023C6
:102FE0008360C5604FF480630361FEF729F92046D2
:102FF000FFF71AFA05460028D7D101214FF4807057
:10300000FEF7EAF80120FEF70BF941463846FFF7D4
:103010002BFCCAE7804200207C420020784200203E
:103020000080014070420020AC82002028830020F4
:103030002DE9F04107460E461446984600222B4BD8
:103040001A702B4B1A6001212A4B19602A4BDA6245
:103050002A4B1B68022B14D02948046010254560B8
:10306000402383600023C3604FF480630361FEF755
:10307000E7F82846FFF7D8F9054630B12846BDE8FD
:10308000F081760A4FF40074E6E71E484FF0FF33F4
:10309000036008FB04F8C0F80480902383600223D7
:1030A000C3600024046101234361FEF72FF9144833
:1030B00006601225456040238360C4604FF480633E
:1030C0000361FEF7BDF82846FFF7AEF90546002874
:1030D000D4D101214FF48070FEF77EF80120FEF775
:1030E0009FF841463846FFF7BFFBC7E78042002004
:1030F0007C42002078420020008001407042002085
:10310000AC8200202883002008B5FFF711FC30B9FD
:10311000074B1B681BB9074B1B78002BF5D0054BE1
:103120001B781BB1034B1878C0B208BD002008BD46
:103130007C42002080420020F8B506460D46002360
:1031400029490B7029490B6029490B602949CB6239
:10315000294B1B68022B14D0174628480260102404
:103160004460402383600023C3604FF480630361A5
:10317000FEF766F82046FFF757F9044628B12046C7
:10318000F8BD6D0A4FF40072E6E71C48056018248C
:103190004460402383600023C3604FF48063036175
:1031A000FEF74EF82046FFF73FF904460028E6D127
:1031B00013484FF0FF330360476090238360002380
:1031C000C360036101254561FEF7A0F829464FF46D
:1031D0008070FEF701F839463046FFF777FB284646
:1031E000FEF71EF8CBE700BF804200207C420020A3
:1031F000784200200080014070420020AC82002014
:10320000288300202DE9F04182B007460D461E4676
:103210000023019340490B7040490B600120404955
:1032200008604049CB62404B1B68022B16D0904689
:103230003E48026010244460402383600023C36042
:103240004FF480630361FDF7FBFF2046FFF7ECF8C6
:10325000044638B1204602B0BDE8F0816D0A4FF453
:103260000072E4E7324B1B681B04304803603724CC
:103270004460402383600023C3604FF48063036194
:10328000FDF7DEFF2046FFF7CFF804460028E1D126
:103290002648066017244460402383600023C360EF
:1032A0004FF480630361FDF7CBFF2046FFF7BCF8C6
:1032B00004460028CED11D480560192444604023EF
:1032C00083600023C3604FF480630361FDF7B8FFA0
:1032D0002046FFF7A9F804460028BBD115484FF057
:1032E000FF33036006FB08F64660902383600023EB
:1032F000C360036101254561FEF708F829464FF4D4
:103300008070FDF769FF2846FDF78AFF3146384691
:10331000FFF7DCFA9EE700BF804200207C420020DD
:10332000784200200080014070420020AC820020E2
:10333000744200202883002008B5FFF7F9FA30B95D
:10334000094B1B681BB9094B1B78002BF5D0074BA9
:103350001B781BB1054B1878C0B208BD40F2FF5076
:10336000FEF78CF8002008BD7C420020804200203F
:1033700010B50446084B1B681B04084A936040F2D2
:103380004D43D3600D20FFF74FF8034610B9034AB1
:1033900052692260184610BD74420020008001402E
:1033A00000B583B002A8002340F8043DFFF7E0FF1A
:1033B00018B1FF2003B05DF804FB0198C0F343206F
:1033C000F8E708B5FFF7ECFF042805D0FF2801D087
:1033D000012008BD022008BD002008BD08B5114B22
:1033E0001B68012B11D000220F4B1A704FF4807014
:1033F000FEF758F800214FF48070FDF7EDFE012232
:103400000A4B1A60084B187808BD094B00229A60D5
:1034100040F24C42DA600C20FFF706F8024B1870BD
:10342000E4E700BF78420020804200207C42002078
:10343000008001407F281DD970B429B10F4E45F29C
:1034400020550024102203E00D4EF8E71D46013AF6
:103450005AB12B1B03EBD37304EB630336F8231031
:10346000884202D0F2D91C46F1E722B19B00023318
:10347000F05A70BC70470020FBE700BFD06F000817
:1034800014C80108002200E00132054B33F8123065
:103490000BB18342F8D113B1024B33F812007047DD
:1034A00054C4010834C6010808B10120704708B5AA
:1034B000FFF722FD08B9002008BD012008BD00204B
:1034C000704708B508461146012B0CD94FF400721D
:1034D0004902FFF7ADFDFFF717FEFFF772FF002867
:1034E000FBD1002008BD4FF400724902FFF738FD00
:1034F000FFF70AFEFFF765FF0028FBD1F1E708B5EB
:1035000008461146012B0CD94FF400724902FFF70F
:1035100079FEFFF711FFFFF754FF0028FBD10020D1
:1035200008BD4FF400724902FFF706FEFFF704FFE3
:10353000FFF747FF0028FBD1F1E70020704700208C
:10354000704704E00A780270013101301A46531EB8
:10355000002AF7D1704702E0017001301A46531E6D
:10356000002AF9D1704770B40346002001E02946D3
:103570003346541E32B15E1C18784D1C0B7822461F
:10358000C01AF4D070BC704700E0013090F90030F0
:103590000BB18B42F9D1184670470000F0B44B7361
:1035A0000F23CB7200250D738D76CD76561E06EB5C
:1035B000460306EB83062B4602E001350C2D11D89D
:1035C0004FF6FF74A34202D030F8163001360B4C90
:1035D000645D0B5501341F0A0F55002BEDD14FF6DA
:1035E000FF73EAE74FF6FF74A34202D030F81630BB
:1035F0000BB942F040020A70F0BC7047981C0308F7
:1036000001460B220020C30143EA5003DBB20878D5
:103610000344D8B20131013AF5D170472DE9F041A8
:10362000C76A8F4231D00E46044603791BB90EBBE0
:103630000020BDE8F08100F1300801233A46414600
:103640004078FFF75CFF18BB00232371236AE2690F
:1036500013449F42EBD2E57809E0E3691F4401235C
:103660003A4641466078FFF74AFF013DEDB2012D31
:10367000F3D8DCE70123324604F130016078FFF72C
:1036800020FF40B9E662BDE8F0810020BDE8F0818E
:103690000120BDE8F0810120BDE8F08110B50446AD
:1036A00001230A4600F130014078FFF70AFF08B114
:1036B000032010BD94F82F2294F82E3243EA0223FF
:1036C0001BB2184A934201D0022010BD94F8692021
:1036D00094F868301B0443EA026394F8672043EAD5
:1036E000022394F86620134323F07F430E4A93424B
:1036F00015D094F8852094F884301B0443EA0263C3
:1037000094F8832043EA022394F88220134323F0A1
:103710007F43054A934201D0012010BD10BD002017
:1037200010BD00BF55AAFFFF4641540088B108B53F
:1037300002780AB9092008BDC2888A4201D009204E
:1037400008BD4078FFF7BBFE10F0010F03D0032047
:1037500008BD09207047002008BD0000F8B50368C7
:1037600093F90040303C092C08D893F901503A2DC8
:1037700001D0002403E00233036000E000240CB118
:103780000B20F8BDBE4B53F824500D60002D00F007
:10379000618116462B787BB16878FFF790FE10F0B8
:1037A000010F09D1002E00F0578110F0040F01D055
:1037B0000A20F8BD0020F8BD00232B70E0B268702D
:1037C000FFF772FE10F0010F01D00320F8BD26B103
:1037D00010F0040F01D00A20F8BD00212846FFF7A1
:1037E0005DFF012806D00024032800F03781C8B10E
:1037F0000D20F8BD95F8F2310BB90024F4E795F8E7
:10380000F93195F8F841240444EA036495F8F73156
:1038100044EA032495F8F6311C4321462846FFF775
:103820003DFFE1E795F83C2095F83B3043EA022361
:103830001BB2B3F5007F01D00D20F8BD95F84730DD
:1038400095F8462052EA03220DD195F8573095F8A5
:103850005620120442EA036295F8553042EA0322E8
:1038600095F854301A43EA6195F84010E9704B1E00
:10387000DBB2012B01D90D20F8BD02FB01F195F857
:103880003D60AE70002E00F0EB80731E1E4201D032
:103890000D20F8BD95F8423095F8410040EA03202C
:1038A000288110F00F0F40F0DD8095F8447095F8F6
:1038B000433053EA07230DD195F8537095F85230F1
:1038C0001B0443EA076395F8517043EA072395F810
:1038D00050703B4395F83FE095F83E7057EA0E2E46
:1038E00000F0C28001EB0E0707EB1017BB42C0F0DF
:1038F000BD80DB1BB3FBF6F3002B00F0B98040F674
:10390000F576B34200F2968001264FF6F57C6345CA
:1039100000D903260233AB612744AF6204EB0E07E4
:103920002F62032E40F08880002840F0A38095F895
:103930005F0095F85E10090441EA006195F85D00AA
:1039400041EA002195F85C00014369629B0003F2A3
:10395000FF13B2EB532FC0F091804FF0FF332B6178
:103960000023EB60032E5AD16B7195F8613095F806
:10397000602042EA032222446A61012305F13001FA
:103980006878FFF79EFD002849D195F82F2295F819
:103990002E3243EA02231BB23A4A93423FD195F8B2
:1039A000332095F832301B0443EA026395F8312046
:1039B00043EA022395F830201343334A93422ED131
:1039C00095F8172295F816321B0443EA026395F81E
:1039D000152243EA022395F8142213432B4A9342FB
:1039E0001DD195F81F2295F81E321B0443EA02638D
:1039F00095F81D2243EA022395F81C221343EB603D
:103A000095F81B2295F81A321B0443EA026395F8D5
:103A1000192243EA022395F8182213432B612E70D2
:103A20001B4A138801339BB21380EB800020E862AD
:103A30002871F8BD022668E7F0B139446962022EA8
:103A400001D15B0083E703EB430103F0010303EBC8
:103A500051037CE70C20F8BD0020F8BD0120F8BD23
:103A60000D20F8BD0D20F8BD0D20F8BD0D20F8BDCE
:103A70000D20F8BD0D20F8BD0D20F8BD0D20F8BDBE
:103A80008442002055AAFFFF525261417272416187
:103A9000884200202DE9F04F83B0064689460F6822
:103AA00000E0013797F900302F2BFAD05C2BF8D0CB
:103AB000F5690024A0460FE0000280B2184480B2ED
:103AC0000121FFF7B7FC8246002800F016817F280D
:103AD00026D925F814A0013408F1010217F908309D
:103AE0009BB21F2B24D92F2B22D05C2B20D0FE2C55
:103AF00000F20181DBB298B27F33DBB27D2B0DD8AF
:103B000008F10208BB5CA3F14002D2B23E2AD3D92D
:103B100083F080027E2ACFD9062021E09046CFE7AD
:103B200001467748FFF730FD0028D2D0062017E085
:103B30001744C9F800701F2B02D84FF0040803E0A7
:103B40004FF0000800E0013C44B104F10043013BA8
:103B500035F81330202BF6D02E2BF4D01CB90620CC
:103B600003B0BDE8F08F002725F814700B22202148
:103B7000B069FFF7F0FC00E0013735F81720202A84
:103B8000FAD02E2AF8D01FB148F0030800E0013C1B
:103B900064B104F10042013A35F812202E2AF6D120
:103BA0004FF0080B002301939A460AE001944FF06E
:103BB000080B4FF0000A04E04C450BD048F0030816
:103BC0004F4607F1010935F8177067B3202FF5D07C
:103BD0002E2FF1D0019B5B4510D24C450ED07F2F8C
:103BE0003FD8FF2F4FD90BF1FF33019A9A4242D3AE
:103BF00048F003084F46CDF804B0E2E7BBF10B0FE5
:103C00000FD04C4501D048F003084C450BD34FEA88
:103C10008A0A5FFA8AFA27464FF00B0B08230193B2
:103C2000CFE748F00308B3691A78E52A52D0BBF110
:103C3000080F52D00AF00C030C2B53D00AF00302E9
:103C4000032A4FD018F0020F06D10AF0030ABAF186
:103C5000010F4AD0042B4BD0B36983F80B800020AE
:103C60007EE73846FFF70EFC0021FFF7E3FB07462F
:103C700048F00208B5E7B269019803460133C7F37B
:103C80000721115404E04FB948F00308019B5F2756
:103C9000B269591C0191D7544F4692E739461948E9
:103CA000FFF772FC0028EFD1A7F141039BB2192B5B
:103CB00003D84AF0020A019BEAE7A7F161039BB22D
:103CC000192B05D84AF0010A203FBFB2019BDFE75C
:103CD000019BDDE705221A70A9E74FEA8A0A5FFA1D
:103CE0008AFAA7E748F00208ACE748F01008B1E705
:103CF00048F00808B0E7062032E7062030E700BFAA
:103D0000A81C0308B41C03082DE9F84380460D469F
:103D10000E7826F04006013E06EB460306EB8306CE
:103D20000127002410E0FFF7ADFB0746FE2E26D842
:103D300006F1010938F81600FFF7A4FB874221D1EC
:103D40004E4601340C2C0FD8144B1B5D5A1CAA5C38
:103D5000E85C40EA0220002FE5D14FF6FF7398425D
:103D6000EFD00020BDE8F8832B7813F0400F0CD083
:103D700077B138F8163073B90120BDE8F883002018
:103D8000BDE8F8830020BDE8F8830120BDE8F88392
:103D90000120BDE8F8830020BDE8F883981C0308E3
:103DA000F8B504460021FFF739FC054648B92378E9
:103DB000032B08D0002211466078FFF7BEFB00B14C
:103DC00001252846F8BD6379002BF3D00027E76270
:103DD00004F130064FF4007239463046FFF7BBFB62
:103DE000552384F82E32AA2384F82F32522384F8E4
:103DF000303084F83130612384F83230412284F845
:103E00003320722184F8141284F8151284F81622D3
:103E100084F81732236984F81832C3F3072284F830
:103E20001922C3F3074284F81A221B0E84F81B32AE
:103E3000E36884F81C32C3F3072284F81D22C3F31D
:103E4000074284F81E221B0E84F81F320123626988
:103E500031466078FFF753FB6771ABE7023983693E
:103E6000023B994204D28378806A03FB01007047C9
:103E70000020704701296DD9F8B5836999426BD24A
:103E80000C4606460378022B30D0032B44D0012B7E
:103E900002D04FF0FF30F8BD01EB5107016A01EB92
:103EA0005721FFF7BBFB10B14FF0FF30F8BDC7F350
:103EB0000803334493F830500137316A01EB57213E
:103EC0003046FFF7ABFB10B14FF0FF30F8BDC7F342
:103ED0000807F01990F8300045EA002014F0010FAF
:103EE00001D00009F8BDC0F30B00F8BD016A01EB79
:103EF0001421FFF793FB10B14FF0FF30F8BD6100C4
:103F000001F4FF7101F1300333445B78701890F8CD
:103F1000300040EA0320F8BD016A01EBD411FFF73D
:103F20007DFB10B14FF0FF30F8BDA00000F4FE7033
:103F300000F130023244D17893781B0443EA0163E4
:103F4000527843EA0223304490F83000184320F0BE
:103F50007040F8BD012070470120F8BD70B50546DE
:103F60000C46C180816801293BD003689A6991425F
:103F700001D3022070BD11B91A78032A06D0A1B965
:103F8000E9601A89944203D3022070BD596AF6E7AA
:103F90005B6A03EB14132B612B68303304F00F04BE
:103FA00003EB44146C61002070BD9E783601B4426E
:103FB0000FD32868FFF75EFF0146B0F1FF3F12D034
:103FC000012812D92B689B69984210D2A41BA4B275
:103FD000EDE7E9602868FFF741FF00EB1410286166
:103FE000DAE7022070BD012070BD022070BD022002
:103FF00070BDF8B5012940F287808369994201D3E9
:10400000022382E016460C4605460378022B44D074
:10401000032B57D0012B03D0022301222A7174E015
:1040200001EB5107016A01EB5721FFF7F7FA03464D
:104030000028F2D1C7F3080214F0010421D0AB1814
:1040400093F9303003F00F03310101F47F610B432A
:10405000DBB22A4482F83030013701232B71296A00
:1040600001EB57212846FFF7D9FA03460028D4D19F
:10407000C7F308073CB1C6F307122F4487F8302076
:10408000CBE7F3B2E5E7EA1992F9302022F00F020C
:10409000C6F303263243D2B2EFE7016A01EB1421E3
:1040A000FFF7BCFA03460028B7D1610001F4FF71A5
:1040B00001F130002844294481F83060C6F307221A
:1040C0004270AAE7016A01EBD411FFF7A7FA034691
:1040D0000028A2D1A10001F4FE7101F130002844B2
:1040E000C4788278120442EA0462294402F07042E1
:1040F000324381F83020C2F307214170C2F30741F7
:104100008170120EC27088E702231846F8BDF8B518
:1041100005460F4631B9C66876B183699E420CD315
:1041200001260AE0FFF7A6FE034601283FD9AA6947
:10413000904241D33E4600E0012634460CE0214641
:104140002846FFF797FE034670B1B0F1FF3F33D02A
:10415000012831D0B4422ED00134AB699C42EED359
:10416000012E26D90224EAE76FF070422146284644
:10417000FFF73FFF034600B95FB98BB9EC602B69CD
:10418000B3F1FF3F1AD0013B2B6101236B71234632
:1041900012E0224639462846FFF72BFF0346ECE79C
:1041A000012B01D0012307E04FF0FF3304E001238E
:1041B00002E0002300E000231846F8BD2346FBE799
:1041C0002DE9F041C4880134A4B214B90420BDE83B
:1041D000F081036913B90420BDE8F0810E4605465D
:1041E00014F00F0710D101330361C16831B90368BE
:1041F0001B899C4208D30420BDE8F08100688378C5
:10420000013B13EA141308D0EC802B68303303EB26
:1042100047136B610020BDE8F081FFF72BFE80465D
:10422000012848D9B0F1FF3F48D0286883699845F4
:1042300039D316B90420BDE8F081E968FFF767FFBC
:10424000804610B90720BDE8F081012839D0B0F1CF
:10425000FF3F39D000212868FFF7E0F9002836D168
:1042600028684FF4007200213030FFF774F92E688F
:1042700041463046FFF7F2FDF06200262B689A783F
:1042800096420DD201221A7100212868FFF7C6F963
:1042900000BB2A68D36A0133D3620136F6B2EDE778
:1042A000DA6A921BDA62C5F80C8041462868FFF78B
:1042B000D5FD2861A8E70220BDE8F0810120BDE816
:1042C000F0810220BDE8F0810120BDE8F0810120ED
:1042D000BDE8F0810120BDE8F0812DE9F041044600
:1042E0000021FFF73BFE0646002858D14FF0FF089B
:1042F00047463EE00F2915D027B92846FFF780F939
:1043000080454CD04FF6FF732384A169CB7A13F01C
:10431000010F27D10B222846FFF725F900283ED0B0
:10432000FF2720E0E069F0B113F0400F06D095F8C8
:104330000D8003F0BF03E28822841F46BB4201D0F8
:10434000FF2710E06B7B984501D0FF270BE0294643
:10435000FFF7DAFC20B1013FFFB204E0FF2702E0E3
:10436000FF2700E0FF2700212046FFF729FF064630
:10437000A8B921692068FFF751F9064678B965693F
:104380002B785BB1EA7A02F03F01E52BE6D012F020
:10439000080FAFD00F29ADD0FF27E4E70426304641
:1043A000BDE8F08110B582B00446019191F900306A
:1043B0002F2B28D05C2B26D00023A360019B1B78D9
:1043C0001F2B23D901A92046FFF764FB034620BB1E
:1043D0002046FFF782FFA369DA7A034600BB12F09A
:1043E000040F1AD16369DA7A12F0100F1FD0597DC9
:1043F0001A7D42EA0122D97E9B7E43EA012343EAE9
:104400000243A360DEE701310191D5E70021204698
:10441000FFF7A4FD034600226261184602B010BDFA
:104420000428FAD112F0040FF7D10523F5E705238C
:10443000F3E7F8B5012927D904460D468369994267
:1044400001D3022721E0002700E03546A3699D4201
:104450001BD229462046FFF70DFD0646A8B10128CC
:1044600015D0B0F1FF3F14D0002229462046FFF7B7
:10447000C0FD074648B92369B3F1FF3FE5D00133DA
:10448000236101236371E0E702273846F8BD022764
:10449000FBE70127F9E770B582B0054616461C46D2
:1044A0000B22FFF74EF8052C0AD9E30343EA540424
:1044B000A4B233881C44A4B273880236002BF4D112
:1044C000072007E0411E02AA024402F8083C240922
:1044D00009D0084604F00F0202F13003392BF1D95C
:1044E00002F13703EEE77E2202AB0B4403F8082CFF
:1044F000002300E001338B4210D2EA5C202A0DD069
:104500007F32D2B27D2AF5D8821E934206D0013383
:10451000F0E7202018701346072A09D85A1C2B44AC
:104520000729F6D802A8084410F8080C0131F1E771
:1045300002B070BD2DE9F04184B005468669D0F81F
:104540001C800C22314601A8FEF7FBFF9DF80F30BE
:1045500013F0010F1DD00023F372EB610124632CD3
:104560000DD82346424601A93046FFF794FF28465E
:10457000FFF7B3FE074610B90134A4B2EFE7642C8D
:1045800000F08D80042F6BD19DF80F30F372C5F8C9
:104590001C809DF80F3013F0020F1AD10126002164
:1045A0002846FFF7DBFC0746002859D14FF00008EA
:1045B00044461AE001339BB238F81320002AF9D19F
:1045C0001933384E86FB0326DB17C3EBA606B6B2BB
:1045D000E5E70023F0E70134A4B2A64217D0012199
:1045E0002846FFF7EDFD074688B929692868FFF7D7
:1045F00015F8074658B96B691B78E52B00D023B92D
:10460000002CE8D1B5F80680E5E70024E7E737BBE2
:10461000012E24D941462846FFF7A0FC0746F0B9F1
:10462000A869FEF7EDFF8046741EA4B229692868C8
:10463000FEF7F4FF074690B94346E2B26969E869BC
:10464000FEF7ACFF2B6801221A7100212846FFF704
:10465000B7FD074618B9013CA4B2002CE6D11FB142
:10466000384604B0BDE8F08129692868FEF7D6FF16
:1046700007460028F4D16C69202200212046FEF76D
:104680006AFF0B22A9692046FEF75BFFAB69DB7A64
:1046900003F0180323732B6801221A71E0E7072740
:1046A000DEE700BF4FECC44E034608B10B20704755
:1046B000064A52F8202002B1107009B100220A7097
:1046C000024A42F823100020704700BF84420020B5
:1046D0002DE9F043ADF50F7D064601911746002305
:1046E000036002F01F0802F01E0285A901A8FFF76F
:1046F00035F882AB8B9302AB8C930546002841D0F2
:104700008A9C0DB9002C43D017F01C0F00F0858057
:10471000002D44D0042D3DD048F008088A9C15B9DE
:1047200018F0080F46D145B918F0080F01D048F02D
:104730002008859BDB6AF3613462F5B986F8068050
:10474000627D237D43EA0222E17EA37E43EA0123C8
:1047500043EA02433361E27FA37F1B0443EA02631F
:10476000627F43EA0223227F1343F3600023B36096
:10477000B361859B3360DB88B38028460DF50F7DE0
:10478000BDE8F083019985A8FFF70CFE0546B7E761
:104790000625B9E785A8FFF7CDFE0546BCE7E37A15
:1047A00013F0110F04D117F0040FB8D00825B6E7A5
:1047B0000725B4E7FEF7C3FEA073C0F30723E37336
:1047C000C0F307432374000E60740023E372237761
:1047D0006377A377E377627D277D47EA0227E17E4F
:1047E000A27E42EA0122A376E3762375637585985B
:1047F0000123037152EA074795D0D0F82C9039462F
:10480000FFF717FE054600288DD18598013FC76048
:104810004946FEF703FF054685E7002D83D1E37A7D
:1048200013F0100F01D004257DE717F0020F3FF4BD
:104830007AAF13F0010F3FF476AF072573E72DE948
:10484000F04F83B004468846164699460023C9F8BF
:10485000003081880068FEF769FF0190002840F071
:10486000C180A37913F0800F40F0BA8013F0010FDC
:1048700002D107230193B5E0E368A2689B1AB34213
:1048800063D21E4661E06169FFF7F4FA6EE0A37936
:1048900063F07F03A37102230193A3E0A37963F084
:1048A0007F03A371012301939CE0A37963F07F034D
:1048B000A3710223019395E0A37963F07F03A371B1
:1048C000012301938EE04FF4007204F1240108EB00
:1048D0004020FEF736FE73E0A26992451AD0A37914
:1048E00013F0400F0CD0012304F124019BF80100C8
:1048F000FEF705FE002865D1A37923F04003A371DC
:10490000214651F8240B012352464078FEF7D9FD89
:1049100000285ED1C4F818A0A168C1F30801C1F550
:104920000075AE4200D23546203121442A4604317A
:104930004046FEF706FEA844A3682B44A360D9F8BE
:1049400000302B44C9F80030761B002E4AD0A368F3
:10495000C3F30802002ADFD120688778013FFFB245
:1049600017EA532708D1002B8DD1206901288ED951
:10497000B0F1FF3F92D06061D4F800B06169584651
:10498000FFF76CFA824600288FD0BA44750AA3D08C
:104990007B199BF80220934200D9D51BEBB25246FB
:1049A00041469BF80100FEF78CFD002884D1A379D5
:1049B00013F0400F04D0A069A0EB0A00854282D812
:1049C0006D02B8E7A37963F07F03A371012301931C
:1049D00008E0A37963F07F03A3710123019301E051
:1049E00002230193019803B0BDE8F08F2DE9F04F49
:1049F00083B004468846164699460023C9F800301D
:104A000081880068FEF792FE0190002840F0DE8069
:104A1000A37913F0800F40F0D78013F0020F02D17A
:104A200007230193D2E0E368F34270D300266EE0DF
:104A30000021FFF76CFB034620617CE06169FFF712
:104A400066FB034677E0A37963F07F03A37102233B
:104A50000193BBE0A37963F07F03A371012301936A
:104A6000B4E0214651F8240B0123A2694078FEF7F7
:104A700046FD20B9A37923F04003A37167E0A37931
:104A800063F07F03A371012301939FE0A37963F097
:104A90007F03A3710223019398E0A37963F07F035E
:104AA000A3710123019391E04FF4007208EB4121BF
:104AB00004F12400FEF745FDA37923F04003A37120
:104AC00065E0A3699B4503D0A268E3689A4260D37E
:104AD000C4F818B0A068C0F30800C0F50075AE4275
:104AE00000D23546203020442A4641460430FEF7A5
:104AF00028FDA37943F04003A371A844A3682B4485
:104B0000A360D9F800302B44C9F80030761B002E82
:104B100050D0A368C3F30802002ADBD1206887784D
:104B2000013FFFB217EA53270DD1002B86D123692D
:104B3000002B3FF47DAF002B3CD0012B83D0B3F191
:104B4000FF3F87D06361A37913F0400F89D1D4F878
:104B500000A061695046FFF781F98346002895D08F
:104B6000BB44750AADD07B199AF80220934200D954
:104B7000D51BEBB25A4641469AF80100FEF7BFFC3E
:104B800000288AD1A169A1EB0B018D428CD86D025E
:104B9000B3E701235A4604F124019AF80100FEF715
:104BA00090FC002894D0A37963F07F03A3710123C4
:104BB00001930BE0A368E268934200D9E360A37914
:104BC00043F02003A37101E002230193019803B095
:104BD000BDE8F08F38B5044681880068FEF7A6FD71
:104BE0000346D0B9A27912F0200F16D012F0400F70
:104BF0000DD0214651F8240B0123A2694078FEF71D
:104C00007EFC00283AD1A37923F04003A371E16927
:104C10002068FEF703FD034608B1184638BD256A33
:104C2000EB7A43F02003EB72237B2B77A3891B0ADB
:104C30006B77A37BAB77E37BEB77237CAB76238A25
:104C40001B0AEB76A37C2B75638A1B0A6B75FEF738
:104C500076FCA875C0F30723EB75C0F307432B76EA
:104C6000000E6876A37923F02003A3712368012244
:104C70001A712068FFF794F80346CEE70123CCE7CA
:104C800010B50446FFF7A6FF034608B900222260CC
:104C9000184610BD2DE9F04104460D468188006894
:104CA000FEF744FD8046002840F0C680A37913F04B
:104CB000800F40F0BF80E268AA4203D213F0020FD7
:104CC00000D11546A6680023A360CDB1206887787F
:104CD0007F026EB16B1EB3FBF7F3013EB6FBF7F23A
:104CE000934205D37B421E40A660AE1B656905E07A
:104CF0002369002B31D063612E461D46002D58D10B
:104D0000A368C3F30803F3B1A26995421BD0A3794A
:104D100013F0400F0CD0214651F8240B01234078AA
:104D2000FEF7EDFB002877D1A37923F04003A371B0
:104D3000214651F8240B01232A464078FEF7C1FB97
:104D4000002870D1A561A368E268934274D9E3603A
:104D5000A37943F02003A3716EE00021FFF7D7F998
:104D60000346012804D0B0F1FF3F08D02061C2E71C
:104D7000A37963F07F03A3714FF002085CE0A3798D
:104D800063F07F03A3714FF0010855E029462068C6
:104D9000FFF770F80546B5F1FF3F2AD0012D2FD956
:104DA00023689B699D422BD26561A3683B44A36045
:104DB000F61BBE420BD9A37913F0020FE6D02946A9
:104DC0002068FFF7A4F905460028E4D13E46A36811
:104DD0003344A360C6F30803E3B129462068FFF714
:104DE0003DF8A0B9A37963F07F03A3714FF00208E7
:104DF00022E0A37963F07F03A3714FF001081BE069
:104E0000A37963F07F03A3714FF0020814E000EB75
:104E1000562575E7002573E7A37963F07F03A37137
:104E20004FF0010808E0A37963F07F03A3714FF00E
:104E3000010801E04FF002084046BDE8F081F0B5FE
:104E400083B006460D4600238DF80730092A13D09B
:104E5000072A7DD0082A00F08680062A00F0E88024
:104E60000121B5F5007FC0F2E8804E2218213046BE
:104E700001F05EF903B0F0BD02A8C02300F8013DC7
:104E8000012101F0D7F800241EE002AFDB2307F870
:104E9000013D0121384601F0CDF8DC238DF80730C3
:104EA0000121384601F0C6F80DE002AF07F8013DD8
:104EB0000121384601F0BEF8DD238DF807300121CD
:104EC000384601F0B7F80134AC420BDA335DC02B41
:104ED000DBD0DB2BE9D002A800F8013D012101F075
:104EE000A9F8F0E702A8C02300F8013D012101F074
:104EF000A1F80121B5E702AFDB2307F8013D01214D
:104F0000384601F097F8DC238DF807300121384648
:104F100001F090F805E002A800F8013D012101F040
:104F200089F80134AC4215DA335DC02BE3D0DB2BBA
:104F3000F1D102AF07F8013D0121384601F07AF8BE
:104F4000DD238DF807300121384601F073F8E8E7DA
:104F50000024E7E702A8C02300F8013D012101F089
:104F600069F800217DE702A8C02300F8013D012176
:104F700001F060F800241EE002AFDB2307F8013DDA
:104F80000121384601F056F8DC238DF80730012165
:104F9000384601F04FF80DE002AF07F8013D01215E
:104FA000384601F047F8DD238DF8073001213846F7
:104FB00001F040F80134AC420BDA335DC02BDBD09A
:104FC000DB2BE9D002A800F8013D012101F032F805
:104FD000F0E7002145E702AFDB2307F8013D01219F
:104FE000384601F027F8DC238DF8073001213846D8
:104FF00001F020F80DE002AF07F8013D012138462D
:1050000001F018F8DD238DF807300121384601F052
:1050100011F80134AC420DDA335DC02BDBD0DB2B51
:10502000E9D002A800F8013D012101F003F8F0E702
:105030000024EFE74FF0FF3113E74E2201313046F5
:1050400001F076F816E7000070B5ADF5007D054675
:105050000E464FF4007422460021684601F0DEF946
:1050600022466946184800F050FEC0B2B04200DD4A
:10507000F0B200210B4607E05C1C1DF80420DC2A7E
:105080000ED0DD2A11D001330446834212DA1DF816
:105090000320DB2AF0D0C02AF5D06A540131F2E7B0
:1050A000C0236B5401312346EDE7DB236B54013100
:1050B0002346E8E74E220A21284601F039F8204627
:1050C0000DF5007D70BD00BF4483002008B5074B7F
:1050D000186059221321064801F02AF8054B5B6F2E
:1050E000012BFBD10022034B5A6708BD9C82002094
:1050F000B01F03084483002010B5044C0123237023
:10510000FFF7E4FF0023237010BD00BF8F82002053
:10511000F0B59DB0214C11AE04F120073546206852
:105120006168A268E3680FC510342E46BC42F5D111
:1051300020686168A26807C632242246002104A8BC
:1051400001F06CF901AB154A52F82C0F516803C3FA
:1051500012891A8009222C2111A8FFF770FE20461F
:10516000FFF7B4FF142104A8FFF76EFF0023092BFB
:1051700011D81CAA1A4412F8601C12F86C2C914227
:1051800002D10133DBB2F2E759220A21044800F0D0
:10519000CFFF002000E001201DB0F0BDBC1C0308C3
:1051A000881D030870B58CB00646204D08AC2B4610
:1051B00053F8380F59689A68DB680FC400240394C9
:1051C00004940594069407946A462B4653F8480FB6
:1051D000596803C21B8913800922102108A8FFF710
:1051E0002EFE0A20FFF772FF142103A8FFF72CFF01
:1051F0000F4800F049FD304600F08EFE2346092B93
:1052000011D80CAA1A4412F8241C12F8302C91421E
:1052100002D10133DBB2F2E759220A21054800F03E
:1052200087FF002000E001200CB070BDBC1C03080B
:1052300044830020741D030810B58EB0044600237B
:10524000089309930A930B930C930D9302228DF804
:10525000212010228DF822200393049305930693B6
:1052600007936B462E4A52F8540F516803C31289B4
:105270001A80B4F5F02F2DD0B4F5F42F3AD004B342
:10528000284C204600F000FD0922182108A8FFF74D
:10529000D6FD0A20FFF71AFF142103A8FFF7D4FE5A
:1052A000204600F0F1FC0023092B33D80EAA1A4443
:1052B00012F82C1C12F8382C91422ED10133DBB29B
:1052C000F2E70F238DF82A3004238DF82D308DF866
:1052D0003130D5E720238DF8293010238DF82C307C
:1052E00004238DF8313080238DF8353007238DF875
:1052F0003630C5E720238DF8293010238DF82C3067
:1053000004238DF83130A0238DF8353007238DF834
:105310003630B5E701200EB010BD0020FBE700BF1E
:10532000BC1C03084483002030B58DB01C4D08AC74
:105330002B4653F8600F59689A68DB680FC4002445
:10534000039404940594069407946A462B4653F8F4
:10535000700F596803C21B8913800922102108A805
:10536000FFF76DFD0520FFF7B1FE142103A8FFF73D
:105370006BFE0C4800F088FC2346092B0AD80CAAC7
:105380001A4412F8241C12F8302C914205D1013332
:10539000DBB2F2E701200DB030BD0020FBE700BF1B
:1053A000BC1C030844830020F0B58FB00746294D8C
:1053B00008AC2E4656F87C0F7168B268F3680FC4CB
:1053C0003069716903C40023039304930593069322
:1053D00007936A462B4653F8940F596803C21B89FA
:1053E0001380012F14D100238DF8283003238DF86A
:1053F000293001238DF82C309C238DF83430AB23D9
:105400008DF83530FF238DF836303F238DF8373057
:105410000922182108A8FFF712FD0520FFF756FE04
:10542000142103A8FFF710FE0B4800F02DFC002309
:10543000092B0AD80EAA1A4412F82C1C12F8382C80
:10544000914205D10133DBB2F2E701200FB0F0BD8C
:105450000020FBE7BC1C03084483002010B588B083
:1054600004460023039304930593069307936B4626
:105470001F4A52F8A00F516803C312891A80042CE6
:1054800022D0052C27D0032C17D00520FFF71EFEB5
:10549000142103A8FFF7D8FD164800F0F5FB002300
:1054A000092B1FD808AA1A4412F8141C12F8202C31
:1054B00091421AD10133DBB2F2E7092241F6180119
:1054C0000D48FFF7BCFCE0E709224FF4BF610B4831
:1054D000FFF7B5FCD9E709224FF446710848FFF7FA
:1054E000AEFCD2E7012008B010BD0020FBE700BFF2
:1054F000BC1C030844830020442900204C230020C6
:105500003420002008B50220FFF74EFFC0B220B9BA
:1055100040B960B980B9A0B908BD0320FFF79EFF6C
:10552000C0B2F5E70420FFF799FFC0B2F1E7012010
:10553000FFF73AFFC0B2EDE70520FFF78FFFC0B2DB
:10554000E9E7FFF7F1FEC0B2E6E70000EF22002333
:105550008B4217DA10B408E0B0F5F42F0BD00A4CE8
:10556000E45C624001338B4209DA0028F4D1074C35
:10557000E45C6240F6E7064CE45C6240F2E7104609
:1055800010BC704710467047340000208C42002049
:105590003410002070B58EB005460E4600230893E7
:1055A00009930A930B930C930D9303218DF821100B
:1055B00010218DF8221040218DF823108DF829102C
:1055C000039304930593069307936B463A4C54F860
:1055D000AC0F616803C321891980A6F58053013B94
:1055E00042F6FE718B4227D830238DF823308DF898
:1055F00029308DF82C2031462846FFF7A7FF8DF87B
:10560000240045B3B5F5F02F39D0B5F5F42F42D0CD
:105610000A20FFF75BFD142103A8FFF715FD002307
:10562000092B44DC0EAA1A4412F82C1C12F8382C50
:1056300091423FD10133F3E7B6F5805FD9DA0F230A
:105640008DF8223010218DF82310FF218DF82810BD
:105650008DF82930CDE70822182108A8FFF7EFFBC5
:10566000164C06224FF400512046FFF7E8FB0722B4
:10567000A6F5005104F50050FFF7E1FBC8E708224A
:10568000182108A8FFF7DBFB072240F6FF710C4842
:10569000FFF7D5FBBCE70822182108A8FFF7CFFBCE
:1056A000072240F6FF710748FFF7C9FBB0E701206A
:1056B0000EB070BD0020FBE7BC1C03088C4200202C
:1056C000340000203410002070B5ADF50C7D0023AF
:1056D000ADF80430FFF7B0FD002861D059220D214C
:1056E000344800F025FD0122334903A8FEF7F0FFFE
:1056F00000284ED1002459221121304800F018FD15
:1057000002AB4FF480422E4903A8FFF798F80646F3
:1057100059220D212B4800F00BFDE5B2294601A8C6
:1057200000F056FD5922022101A800F001FD592286
:105730000221254800F0FCFC0EBB029BABB100F03F
:1057400010FB2A4602990020FFF724FF054600F0CF
:1057500008FB0134002DCED103A8FFF791FA59229E
:1057600010211A4800F0E4FC20E059220D211848CD
:1057700000F0DEFC03A8FFF783FA012516E003A87A
:10578000FFF77EFA59220E21124800F0D1FC0025C5
:105790000CE059220C21104800F0CAFC002505E05D
:1057A000054659220E210D4800F0C2FC28460DF591
:1057B0000C7D70BD941D0308A41D0308C81D0308BB
:1057C0008C420020DC1D0308D41F0308FC1D0308C5
:1057D000EC1D0308101E0308201E0308301E0308DA
:1057E0002DE9F0410546002400E00134092C2DDCB0
:1057F00004F1670304F15602A95C224AD15404F172
:105800007C03A11C685CD05404F1CA03695CD154C8
:10581000052CEADC04F1AC0704EB440606F1320384
:1058200006F13302A95CE85C00F0E4FCDFF8548088
:1058300008F8070004F1B20706F144034536A95DF4
:10584000E85C00F0D7FC08F80700CEE7002307E08B
:1058500003F1870203F10D01685C0A4988540133A2
:10586000232BF5DD4FF4BA7303E0FF21054AD15431
:10587000013340F6FE729342F7DD0122024B1A70AB
:10588000BDE8F081340000203410002030B5ADF5C3
:10589000257D04466222002101A800F0BFFD0023FF
:1058A000ADF800302046FFF7C7FC002800F0AC80C0
:1058B00003225A491BA8FEF70BFF002840F09A80EC
:1058C00000252C4600E0154659221021544800F0CE
:1058D0002FFC1AAB622201A91BA8FEF7B0FF01340E
:1058E00000287DD11A9B612B4BDD05F162029DF8EA
:1058F0000430592BE7D159220D214A4800F018FCF9
:10590000E4B22146684600F063FC59220221684651
:1059100000F00EFC59220221434800F009FC01A8C6
:10592000FFF75EFF224640F6FF714FF4F020FFF7CD
:1059300031FE044600F015FA84B34E238DF804308E
:1059400029461BA8FFF7A6F900283FD159221621A6
:10595000364800F0EDFB1AAB622201A91BA8FFF745
:1059600045F820BB1BA8FFF78BF9592210213048BE
:1059700000F0DEFB592210212E4800F0D9FB012453
:1059800048E01BA8FFF77CF959220D212A4800F0B6
:10599000CFFB0122294B1A7000243BE01BA8FFF724
:1059A0006FF959221021264800F0C2FB32E01BA8F3
:1059B000FFF766F959221121224800F0B9FB59225C
:1059C00010211F4800F0B4FB002423E01BA8FFF7C0
:1059D00057F9592216211C4800F0AAFB002419E0AF
:1059E0001BA8FFF74DF959220E21184800F0A0FB23
:1059F00000240FE01BA8FFF743F959220C2114489B
:105A000000F096FB002405E0044600220E21114818
:105A100000F08EFB20460DF5257D30BD401E0308AD
:105A20004C1E0308701E0308D41F0308941E0308AD
:105A3000AC1E0308C01E0308601E0308408300203C
:105A4000801E0308D01E0308E41E0308FC1E030882
:105A50000C1F03081C1F03080022064B1A700123A9
:105A600003E0FF21034AD154013340F6FE72934212
:105A7000F7DD70473410002010B5FFF7DDFBF0B103
:105A800059220E21124800F053FBFFF7E5FF0022D8
:105A900040F6FF714FF4F420FFF77CFD044600F060
:105AA00060F934B159220E210A4800F041FB01246B
:105AB0000BE059220F21084800F03AFB05E00446AC
:105AC00059220F21054800F033FB204610BD00BFCE
